:100000000C942A000C9447000C9447000C94470071
:100010000C9447000C9447000C9447000C94470044
:100020000C9447000C9447000C9495020C944700E4
:100030000C9447000C9447000C9447000C94470024
:100040000C9447000C9447000C9447000C94470014
:100050000C94470011241FBECFE5D8E0DEBFCDBF12
:1000600010E0A0E6B0E0E6EAFAE002C005900D92EA
:10007000AC36B107D9F720E0ACE6B0E001C01D9284
:10008000AF3AB207E1F70E9417030C9451050C94A4
:100090000000CF93DF93CDB7DEB78AE390E02FEF78
:1000A000FC0120838BE390E0FC01108287E390E069
:1000B00027E330E0F90120812F60FC01208388E3F1
:1000C00090E028E330E0F9012081FC012083DF91FA
:1000D000CF910895CF93DF9300D0CDB7DEB79A8349
:1000E000898380916C0090916D00A0916E00B09119
:1000F0006F000196A11DB11D80936C0090936D005F
:10010000A0936E00B0936F000F900F90DF91CF918E
:100110000895CF93DF9300D000D0CDB7DEB79A8398
:1001200089837C836B8389819A8190937200809309
:1001300071008B819C8190937400809373000F9069
:100140000F900F900F90DF91CF9108950F931F9311
:10015000CF93DF93CDB7DEB7A2970FB6F894DEBF8B
:100160000FBECDBF9A83898388E390E028E330E017
:10017000F90120812F60FC01208380917000882F7D
:1001800090E0019683709078992324F401978C6F06
:100190009F6F01968093700080917000882329F5ED
:1001A0000BE310E080916C0090916D00A0916E00C7
:1001B000B0916F002AE030E040E050E0BC01CD019A
:1001C0000E942F05DA01C9012AE030E040E050E04A
:1001D000BC01CD010E942F05DC01CB01805A9F4F4D
:1001E000FC018081F80180837AC0809170008130A9
:1001F00029F50BE310E080916C0090916D00A091C7
:100200006E00B0916F0024E630E040E050E0BC01A9
:10021000CD010E942F05DA01C9012AE030E040E05B
:1002200050E0BC01CD010E942F05DC01CB01805ABA
:100230009F4FFC018081F801808351C08091700044
:10024000823029F50BE310E080916C0090916D00F5
:10025000A0916E00B0916F0028EE33E040E050E0D6
:10026000BC01CD010E942F05DA01C9012AE030E06E
:1002700040E050E0BC01CD010E942F05DC01CB0124
:10028000805A9F4FFC018081F801808328C08091B3
:100290007000833021F50BE310E080916C009091A9
:1002A0006D00A0916E00B0916F0020E137E240E058
:1002B00050E0BC01CD010E942F05DA01C9012AE0FE
:1002C00030E040E050E0BC01CD010E942F05DC0190
:1002D000CB01805A9F4FFC018081F801808388E325
:1002E00090E028E330E0F9012081622F2091700036
:1002F000422F50E021E030E0042E02C0220F331FD5
:100300000A94E2F72095206F2623FC012083A29611
:100310000FB6F894DEBF0FBECDBFDF91CF911F9116
:100320000F9108950F931F93CF93DF93CDB7DEB74F
:100330006E970FB6F894DEBF0FBECDBF9A83898348
:1003400088E390E028E330E0F90120812F60FC0190
:10035000208380917000882F90E0019683709078C0
:10036000992324F401978C6F9F6F019680937000FE
:10037000809170008823D9F40BE310E080916C0029
:1003800090916D00A0916E00B0916F002AE030E076
:1003900040E050E0BC01CD010E942F05DC01CB0103
:1003A000805A9F4FFC018081F80180837DC080913D
:1003B0007000813041F50BE310E080916C0090916A
:1003C0006D00A0916E00B0916F002AE030E040E037
:1003D00050E0BC01CD010E942F05DA01C9012AE0DD
:1003E00030E040E050E0BC01CD010E942F05DC016F
:1003F000CB01805A9F4FFC01908180916A00892334
:10040000F801808351C080917000823029F50BE3A0
:1004100010E080916C0090916D00A0916E00B09101
:100420006F0024E630E040E050E0BC01CD010E94C6
:100430002F05DA01C9012AE030E040E050E0BC01BC
:10044000CD010E942F05DC01CB01805A9F4FFC019A
:100450008081F801808328C080917000833021F56D
:100460000BE310E080916C0090916D00A0916E0004
:10047000B0916F0028EE33E040E050E0BC01CD01C8
:100480000E942F05DA01C9012AE030E040E050E087
:10049000BC01CD010E942F05DC01CB01805A9F4F8A
:1004A000FC018081F801808388E390E028E330E05C
:1004B000F9012081622F20917000422F50E021E04D
:1004C00030E0042E02C0220F331F0A94E2F7209579
:1004D000206F2623FC01208380916C0090916D0099
:1004E000A0916E00B0916F00883EF3E09F07A105D8
:1004F000B10580F08091710090917200009751F0E9
:10050000209171003091720080917300909174007D
:10051000F90109956E960FB6F894DEBF0FBECDBFF8
:10052000DF91CF911F910F9108951F920F9200902C
:100530005F000F9211242F933F934F935F936F931C
:100540007F938F939F93AF93BF93EF93FF93CF933B
:10055000DF93CDB7DEB70E944B03DF91CF91FF91C0
:10056000EF91BF91AF919F918F917F916F915F912B
:100570004F913F912F910F9000925F000F901F902D
:100580001895CF93DF93CDB7DEB783E590E023E5F1
:1005900030E0F90120812860FC0120838CE590E0A7
:1005A0002AEFFC012083789489E590E029E530E08A
:1005B000F90120812260FC01208383E590E023E59E
:1005C00030E0F90120812360FC012083DF91CF918D
:1005D0000895CF93DF93CDB7DEB728970FB6F89481
:1005E000DEBF0FBECDBF98878F838F819885FC01BA
:1005F000808191819A8389838F819885FC01828192
:1006000093819C838B831E821D824D815E818B81B1
:100610009C8129813A81BA01F901099528960FB682
:10062000F894DEBF0FBECDBFDF91CF910895CF9379
:10063000DF9300D000D0CDB7DEB70E94C1020E9488
:10064000490087E194E09A83898386EA90E09C835D
:100650008B83CE010196BC0189EE92E00E94890055
:1006600020E030E04AE650E064E680E00E94B90312
:1006700020E030E042E951E064E081E00E94B9030B
:100680000E94590480E090E00F900F900F900F901F
:10069000DF91CF910895CF93DF9300D000D0CDB7F5
:1006A000DEB71A82198258C029813A81C901880FA0
:1006B000991F880F991F880F991F821B930B8458CD
:1006C0009F4FFC0180819181AC014F5F5F4F298179
:1006D0003A81C901880F991F880F991F880F991FA8
:1006E000821B930B84589F4FFC01518340832981C7
:1006F0003A81C901880F991F880F991F880F991F88
:10070000821B930B84589F4FFC01408151812981AA
:100710003A81C901880F991F880F991F880F991F67
:10072000821B930B85589F4FFC018081282F30E05E
:10073000CA01B9010E941B05009749F48091750018
:100740009091760001969093760080937500898150
:100750009A8101969A83898389819A81883091054B
:100760000CF4A2CF0F900F900F900F90DF91CF91CC
:100770000895CF93DF9300D000D000D0CDB7DEB77F
:1007800089836A835C834B833E832D838981282FF1
:1007900030E0C901880F991F880F991F880F991F92
:1007A000821B930B89589F4F2B813C81FC01318325
:1007B00020838981282F30E0C901880F991F880F75
:1007C000991F880F991F821B930B87589F4F2D816C
:1007D0003E81FC01318320838981282F30E0C901CB
:1007E000880F991F880F991F880F991F821B930BE1
:1007F00085589F4F2A81FC0120838981282F30E072
:10080000C901880F991F880F991F880F991F821B94
:10081000930B84589F4FFC011182108226960FB6CD
:10082000F894DEBF0FBECDBFDF91CF910895CF9377
:10083000DF9300D000D0CDB7DEB79A8389837C8365
:100840006B8380916B008F3F09F42CC080916B000B
:10085000282F332727FD3095C901880F991F880F4E
:10086000991F880F991F821B930B89589F4F2981CD
:100870003A81FC013183208380916B00282F33273C
:1008800027FD3095C901880F991F880F991F880F80
:10089000991F821B930B87589F4F2B813C81FC0132
:1008A000318320830F900F900F900F90DF91CF91A5
:1008B0000895CF93DF9300D0CDB7DEB700008091CD
:1008C0007500909176000097D1F3F8941A821982FE
:1008D0007CC029813A81C901880F991F880F991F0F
:1008E000880F991F821B930B85589F4FFC018081B5
:1008F000882309F465C029813A81C901880F991FAD
:10090000880F991F880F991F821B930B84589F4F44
:10091000FC014081518129813A81C901880F991FC9
:10092000880F991F880F991F821B930B85589F4F23
:10093000FC018081882F90E04817590708F440C0D7
:1009400029813A81C901880F991F880F991F880F43
:10095000991F821B930B84589F4FFC01408151814A
:1009600029813A81C901880F991F880F991F880F23
:10097000991F821B930B85589F4FFC018081882F04
:1009800090E0481B590B29813A81C901880F991FB2
:10099000880F991F880F991F821B930B84589F4FB4
:1009A000FC0151834083898180936B0080917500A5
:1009B00090917600019790937600809375000BC01C
:1009C00089819A8101969A83898389819A81883065
:1009D00091050CF47ECF789480916B00282F3327FB
:1009E00027FD3095C901880F991F880F991F880F1F
:1009F000991F821B930B89589F4FFC0140815181A5
:100A000080916B00282F332727FD3095C901880F6F
:100A1000991F880F991F880F991F821B930B875866
:100A20009F4FFC0180819181FA0109958FEF80939E
:100A30006B00000043CFAA1BBB1B51E107C0AA1FDC
:100A4000BB1FA617B70710F0A61BB70B881F991F6F
:100A50005A95A9F780959095BC01CD010895A1E222
:100A60001A2EAA1BBB1BFD010DC0AA1FBB1FEE1F28
:100A7000FF1FA217B307E407F50720F0A21BB30B73
:100A8000E40BF50B661F771F881F991F1A9469F7EF
:100A900060957095809590959B01AC01BD01CF014B
:060AA0000895F894FFCF59
:0C0AA600C0F9A4B0999282F880907FFF04
:00000001FF
