:020000020000FC
:100000000C942A000C9437000C9437000C943700A1
:100010000C9437000C9437000C9437000C94370084
:100020000C9437000C9437000C9437000C94370074
:100030000C9437000C9437000C9437000C94370064
:100040000C9437000C9437000C9437000C94370054
:100050000C94370008E00EBF0FE50DBFA0E6B0E03E
:10006000C0E7D0E0E0E1F0E00E9438000000189521
:100070000F931F932F930F921F9200E011E020E047
:10008000E03011F4F03069F00FBF0C901880011CC3
:100090000C920FB7A10FB21FC10FD21FE150F04059
:0E00A000EFCF1F900F902F911F910F91089599
:00000001FF
