:020000020000FC
:100000000C942A000C9436000C9436000C943600A4
:100010000C9436000C9436000C9436000C94360088
:100020000C9436000C9436000C9436000C94360078
:100030000C9436000C9436000C9436000C94360068
:100040000C9436000C9436000C9436000C94360058
:100050000C94360008E00EBF0FE50DBFA0E6B0E03F
:10006000C0E7D0E0E0E1F0E00E94370018950F9380
:100070001F932F930F921F9200E011E020E0E030D9
:1000800011F4F03069F00FBF0C901880011C0C9235
:100090000FB7A10FB21FC10FD21FE150F040EFCF39
:0C00A0001F900F902F911F910F91089559
:00000001FF
