:100000000C942A000C9447000C9447000C94470071
:100010000C9447000C9447000C9447000C94470044
:100020000C9447000C9447000C94D7010C944700A3
:100030000C9447000C9447000C9447000C94470024
:100040000C9447000C9447000C9447000C94470014
:100050000C94470011241FBECFE5D8E0DEBFCDBF12
:1000600010E0A0E6B0E0E0E1F5E002C005900D92FE
:10007000A236B107D9F720E0A2E6B0E001C01D9298
:10008000A03AB207E1F70E9455020C9486020C9444
:100090000000CF93DF9300D000D0CDB7DEB71A8237
:1000A000198258C029813A81C901880F991F880F88
:1000B000991F880F991F821B930B87599F4FFC0133
:1000C00080819181AC014F5F5F4F29813A81C901E5
:1000D000880F991F880F991F880F991F821B930BF8
:1000E00087599F4FFC015183408329813A81C9017F
:1000F000880F991F880F991F880F991F821B930BD8
:1001000087599F4FFC014081518129813A81C90162
:10011000880F991F880F991F880F991F821B930BB7
:1001200088599F4FFC018081282F30E0CA01B90116
:100130000E947202009749F48091620090916300DE
:100140000196909363008093620089819A81019661
:100150009A83898389819A81883091050CF4A2CF92
:100160000F900F900F900F90DF91CF910895CF9344
:10017000DF9300D000D000D0CDB7DEB789836A838B
:100180005C834B833E832D838981282F30E0C90116
:10019000880F991F880F991F880F991F821B930B37
:1001A0008C599F4F2B813C81FC01318320838981B5
:1001B000282F30E0C901880F991F880F991F880FD9
:1001C000991F821B930B8A599F4F2D813E81FC0101
:1001D000318320838981282F30E0C901880F991F3E
:1001E000880F991F880F991F821B930B88599F4F67
:1001F0002A81FC0120838981282F30E0C901880FE2
:10020000991F880F991F880F991F821B930B87597D
:100210009F4FFC011182108226960FB6F894DEBF24
:100220000FBECDBFDF91CF910895CF93DF9300D064
:10023000CDB7DEB700008091620090916300009717
:10024000D1F3F8941A8219827CC029813A81C901BC
:10025000880F991F880F991F880F991F821B930B76
:1002600088599F4FFC018081882309F465C029814A
:100270003A81C901880F991F880F991F880F991F0C
:10028000821B930B87599F4FFC014081518129812B
:100290003A81C901880F991F880F991F880F991FEC
:1002A000821B930B88599F4FFC018081882F90E01F
:1002B0004817590708F440C029813A81C901880FBD
:1002C000991F880F991F880F991F821B930B8759BD
:1002D0009F4FFC014081518129813A81C901880FDA
:1002E000991F880F991F880F991F821B930B88599C
:1002F0009F4FFC018081882F90E0481B590B29817A
:100300003A81C901880F991F880F991F880F991F7B
:10031000821B930B87599F4FFC0151834083898136
:1003200080936000809162009091630001979093A8
:100330006300809362000BC089819A8101969A8341
:10034000898389819A81883091050CF47ECF7894D5
:1003500080916000282F332727FD3095C901880F31
:10036000991F880F991F880F991F821B930B8C5917
:100370009F4FFC014081518180916000282F3327DD
:1003800027FD3095C901880F991F880F991F880F85
:10039000991F821B930B8A599F4FFC018081918189
:1003A000FA0109958FEF80936000000043CF1F9200
:1003B0000F9200905F000F9211242F933F934F9361
:1003C0005F936F937F938F939F93AF93BF93EF93BD
:1003D000FF93CF93DF93CDB7DEB70E944900DF9143
:1003E000CF91FF91EF91BF91AF919F918F917F91AD
:1003F0006F915F914F913F912F910F9000925F000D
:100400000F901F901895CF93DF9300D0CDB7DEB734
:100410009A83898380919C0090919D00019690938E
:100420009D0080939C000F900F90DF91CF910895D5
:10043000CF93DF9300D0CDB7DEB79A8389838091C5
:100440009E0090919F00029690939F0080939E0043
:100450000F900F90DF91CF910895CF93DF93CDB799
:10046000DEB783E590E023E530E0F90120812860E4
:10047000FC0120838CE590E02AEFFC012083789436
:1004800089E590E029E530E0F90120812260FC0156
:10049000208383E590E023E530E0F90120812360AB
:1004A000FC012083DF91CF910895CF93DF93CDB7E7
:1004B000DEB70E942D0220E030E043E052E065E02C
:1004C00080E00E94B70020E030E048E152E06AE0BE
:1004D00081E00E94B7000E94150180E090E0DF916A
:1004E000CF910895AA1BBB1B51E107C0AA1FBB1FD8
:1004F000A617B70710F0A61BB70B881F991F5A95B0
:10050000A9F780959095BC01CD010895F894FFCF8F
:02051000FF00EA
:00000001FF
