:100000000C942A000C943C000C943C000C943C0092
:100010000C943C000C943C000C943C000C943C0070
:100020000C943C000C943C000C94A2010C943C00F9
:100030000C943C000C943C000C943C000C943C0050
:100040000C943C000C943C000C943C000C943C0040
:100050000C943C0011241FBECFE5D8E0DEBFCDBF1D
:1000600020E0A0E6B0E001C01D92AC39B207E1F794
:100070000E94F8010C9415020C940000CF93DF93BA
:1000800000D0CDB7DEB71A82198228C029813A8103
:10009000C901880F991F880F991F880F991F821B0C
:1000A000930B8B599F4FFC0180819181AC014F5F75
:1000B0005F4F29813A81C901880F991F880F991FC5
:1000C000880F991F821B930B8B599F4FFC01518303
:1000D000408389819A8101969A83898389819A8153
:1000E000883091059CF20F900F90DF91CF91089589
:1000F000CF93DF9300D000D000D0CDB7DEB7898397
:100100006A835C834B833E832D838981282F30E073
:10011000C901880F991F880F991F880F991F821B8B
:10012000930B805A9F4F2B813C81FC0131832083AC
:100130008981282F30E0C901880F991F880F991FE6
:10014000880F991F821B930B8E599F4F2D813E81E3
:10015000FC01318320838981282F30E0C901880F79
:10016000991F880F991F880F991F821B930B8C5919
:100170009F4F2A81FC0120838981282F30E0C9010B
:10018000880F991F880F991F880F991F821B930B47
:100190008B599F4FFC011182108226960FB6F8945E
:1001A000DEBF0FBECDBFDF91CF910895CF93DF9318
:1001B000CDB7DEB783E590E023E530E0F90120819B
:1001C0002860FC0120838CE590E02AEFFC0120836D
:1001D000789489E590E029E530E0F90120812260FA
:1001E000FC01208383E590E023E530E0F9012081E4
:1001F0002360FC012083DF91CF910895CF93DF939B
:1002000000D0CDB7DEB70E94D6001A82198293C003
:1002100029813A81C901880F991F880F991F880F7A
:10022000991F821B930B8C599F4FFC01808188235F
:1002300009F47CC029813A81C901880F991F880F70
:10024000991F880F991F821B930B8B599F4FFC019D
:100250004081518129813A81C901880F991F880FF6
:10026000991F880F991F821B930B8C599F4FFC017C
:100270008081882F90E04817590708F457C02981DA
:100280003A81C901880F991F880F991F880F991FFC
:10029000821B930B8B599F4FFC0140815181298117
:1002A0003A81C901880F991F880F991F880F991FDC
:1002B000821B930B8C599F4FFC018081882F90E00B
:1002C000481B590B29813A81C901880F991F880F52
:1002D000991F880F991F821B930B8B599F4FFC010D
:1002E0005183408329813A81C901880F991F880F62
:1002F000991F880F991F821B930B805A9F4FFC01F7
:100300004081518129813A81C901880F991F880F45
:10031000991F880F991F821B930B8E599F4FFC01C9
:1003200080819181FA0109951A82198289819A81C5
:1003300001969A83898389819A81883091050CF48A
:1003400067CF63CF1F920F9200905F000F9211242E
:100350002F933F934F935F936F937F938F939F93CD
:10036000AF93BF93EF93FF93CF93DF93CDB7DEB7F8
:100370000E943E00DF91CF91FF91EF91BF91AF912D
:100380009F918F917F916F915F914F913F912F91AD
:100390000F9000925F000F901F901895CF93DF93FE
:1003A00000D0CDB7DEB79A83898380919800909171
:1003B0009900019690939900809398000F900F9068
:1003C000DF91CF910895CF93DF9300D0CDB7DEB703
:1003D0009A83898380919A0090919B0002969093D2
:1003E0009B0080939A000F900F90DF91CF9108951A
:1003F000CF93DF93CDB7DEB70E94D60020E030E088
:100400004EEC51E065E080E00E94780020E030E0B2
:1004100043EE51E06AE081E00E9478000E94FE0015
:0E04200080E090E0DF91CF910895F894FFCF37
:00000001FF
